{
	"data": {
		"bytecode": {
			"linkReferences": {},
			"object": "608060405260015f5f6101000a81548160ff021916908315150217905550600a6001557ffffffffffffffffffffffffffffffffffffffffffffffffffffffffffffffff76002556040518060400160405280601181526020017f4c6561726e696e6720736f6c69646974790000000000000000000000000000008152506003908161008a9190610351565b5073cfdf5a13325b0952b8b2bed2da869c40dc2b8ac660045f6101000a81548173ffffffffffffffffffffffffffffffffffffffff021916908373ffffffffffffffffffffffffffffffffffffffff1602179055507f636174000000000000000000000000000000000000000000000000000000000060055534801561010e575f5ffd5b50610420565b5f81519050919050565b7f4e487b71000000000000000000000000000000000000000000000000000000005f52604160045260245ffd5b7f4e487b71000000000000000000000000000000000000000000000000000000005f52602260045260245ffd5b5f600282049050600182168061018f57607f821691505b6020821081036101a2576101a161014b565b5b50919050565b5f819050815f5260205f209050919050565b5f6020601f8301049050919050565b5f82821b905092915050565b5f600883026102047fffffffffffffffffffffffffffffffffffffffffffffffffffffffffffffffff826101c9565b61020e86836101c9565b95508019841693508086168417925050509392505050565b5f819050919050565b5f819050919050565b5f61025261024d61024884610226565b61022f565b610226565b9050919050565b5f819050919050565b61026b83610238565b61027f61027782610259565b8484546101d5565b825550505050565b5f5f905090565b610296610287565b6102a1818484610262565b505050565b5b818110156102c4576102b95f8261028e565b6001810190506102a7565b5050565b601f821115610309576102da816101a8565b6102e3846101ba565b810160208510156102f2578190505b6103066102fe856101ba565b8301826102a6565b50505b505050565b5f82821c905092915050565b5f6103295f198460080261030e565b1980831691505092915050565b5f610341838361031a565b9150826002028217905092915050565b61035a82610114565b67ffffffffffffffff8111156103735761037261011e565b5b61037d8254610178565b6103888282856102c8565b5f60209050601f8311600181146103b9575f84156103a7578287015190505b6103b18582610336565b865550610418565b601f1984166103c7866101a8565b5f5b828110156103ee578489015182556001820191506020850194506020810190506103c9565b8683101561040b5784890151610407601f89168261031a565b8355505b6001600288020188555050505b505050505050565b610ba68061042d5f395ff3fe608060405234801561000f575f5ffd5b506004361061007b575f3560e01c80636057361d116100595780636057361d146100ec57806362c45a211461010857806395607ced14610138578063bc832d4e146101565761007b565b80630bf285e51461007f5780632e64cec11461009d5780632ebce631146100bb575b5f5ffd5b610087610172565b60405161009491906103fe565b60405180910390f35b6100a5610178565b6040516100b291906103fe565b60405180910390f35b6100d560048036038101906100d09190610452565b610181565b6040516100e39291906104ed565b60405180910390f35b61010660048036038101906101019190610452565b610236565b005b610122600480360381019061011d9190610647565b610240565b60405161012f91906103fe565b60405180910390f35b61014061026d565b60405161014d91906107da565b60405180910390f35b610170600480360381019061016b91906107fa565b610362565b005b60115481565b5f601154905090565b600f8181548110610190575f80fd5b905f5260205f2090600202015f91509050805f0154908060010180546101b590610881565b80601f01602080910402602001604051908101604052809291908181526020018280546101e190610881565b801561022c5780601f106102035761010080835404028352916020019161022c565b820191905f5260205f20905b81548152906001019060200180831161020f57829003601f168201915b5050505050905082565b8060118190555050565b6010818051602081018201805184825260208301602085012081835280955050505050505f915090505481565b6060600f805480602002602001604051908101604052809291908181526020015f905b82821015610359578382905f5260205f2090600202016040518060400160405290815f82015481526020016001820180546102ca90610881565b80601f01602080910402602001604051908101604052809291908181526020018280546102f690610881565b80156103415780601f1061031857610100808354040283529160200191610341565b820191905f5260205f20905b81548152906001019060200180831161032457829003601f168201915b50505050508152505081526020019060010190610290565b50505050905090565b600f604051806040016040528084815260200183815250908060018154018082558091505060019003905f5260205f2090600202015f909190919091505f820151815f015560208201518160010190816103bc9190610a51565b505050816010826040516103d09190610b5a565b9081526020016040518091039020819055505050565b5f819050919050565b6103f8816103e6565b82525050565b5f6020820190506104115f8301846103ef565b92915050565b5f604051905090565b5f5ffd5b5f5ffd5b610431816103e6565b811461043b575f5ffd5b50565b5f8135905061044c81610428565b92915050565b5f6020828403121561046757610466610420565b5b5f6104748482850161043e565b91505092915050565b5f81519050919050565b5f82825260208201905092915050565b8281835e5f83830152505050565b5f601f19601f8301169050919050565b5f6104bf8261047d565b6104c98185610487565b93506104d9818560208601610497565b6104e2816104a5565b840191505092915050565b5f6040820190506105005f8301856103ef565b818103602083015261051281846104b5565b90509392505050565b5f5ffd5b5f5ffd5b7f4e487b71000000000000000000000000000000000000000000000000000000005f52604160045260245ffd5b610559826104a5565b810181811067ffffffffffffffff8211171561057857610577610523565b5b80604052505050565b5f61058a610417565b90506105968282610550565b919050565b5f67ffffffffffffffff8211156105b5576105b4610523565b5b6105be826104a5565b9050602081019050919050565b828183375f83830152505050565b5f6105eb6105e68461059b565b610581565b9050828152602081018484840111156106075761060661051f565b5b6106128482856105cb565b509392505050565b5f82601f83011261062e5761062d61051b565b5b813561063e8482602086016105d9565b91505092915050565b5f6020828403121561065c5761065b610420565b5b5f82013567ffffffffffffffff81111561067957610678610424565b5b6106858482850161061a565b91505092915050565b5f81519050919050565b5f82825260208201905092915050565b5f819050602082019050919050565b6106c0816103e6565b82525050565b5f82825260208201905092915050565b5f6106e08261047d565b6106ea81856106c6565b93506106fa818560208601610497565b610703816104a5565b840191505092915050565b5f604083015f8301516107235f8601826106b7565b506020830151848203602086015261073b82826106d6565b9150508091505092915050565b5f610753838361070e565b905092915050565b5f602082019050919050565b5f6107718261068e565b61077b8185610698565b93508360208202850161078d856106a8565b805f5b858110156107c857848403895281516107a98582610748565b94506107b48361075b565b925060208a01995050600181019050610790565b50829750879550505050505092915050565b5f6020820190508181035f8301526107f28184610767565b905092915050565b5f5f604083850312156108105761080f610420565b5b5f61081d8582860161043e565b925050602083013567ffffffffffffffff81111561083e5761083d610424565b5b61084a8582860161061a565b9150509250929050565b7f4e487b71000000000000000000000000000000000000000000000000000000005f52602260045260245ffd5b5f600282049050600182168061089857607f821691505b6020821081036108ab576108aa610854565b5b50919050565b5f819050815f5260205f209050919050565b5f6020601f8301049050919050565b5f82821b905092915050565b5f6008830261090d7fffffffffffffffffffffffffffffffffffffffffffffffffffffffffffffffff826108d2565b61091786836108d2565b95508019841693508086168417925050509392505050565b5f819050919050565b5f61095261094d610948846103e6565b61092f565b6103e6565b9050919050565b5f819050919050565b61096b83610938565b61097f61097782610959565b8484546108de565b825550505050565b5f5f905090565b610996610987565b6109a1818484610962565b505050565b5b818110156109c4576109b95f8261098e565b6001810190506109a7565b5050565b601f821115610a09576109da816108b1565b6109e3846108c3565b810160208510156109f2578190505b610a066109fe856108c3565b8301826109a6565b50505b505050565b5f82821c905092915050565b5f610a295f1984600802610a0e565b1980831691505092915050565b5f610a418383610a1a565b9150826002028217905092915050565b610a5a8261047d565b67ffffffffffffffff811115610a7357610a72610523565b5b610a7d8254610881565b610a888282856109c8565b5f60209050601f831160018114610ab9575f8415610aa7578287015190505b610ab18582610a36565b865550610b18565b601f198416610ac7866108b1565b5f5b82811015610aee57848901518255600182019150602085019450602081019050610ac9565b86831015610b0b5784890151610b07601f891682610a1a565b8355505b6001600288020188555050505b505050505050565b5f81905092915050565b5f610b348261047d565b610b3e8185610b20565b9350610b4e818560208601610497565b80840191505092915050565b5f610b658284610b2a565b91508190509291505056fea264697066735822122073396e9d0fc5fffc68d9b479bb50680c24938c6281804116d217323c0fa81e6064736f6c634300081b0033",
			"opcodes": "PUSH1 0x80 PUSH1 0x40 MSTORE PUSH1 0x1 PUSH0 PUSH0 PUSH2 0x100 EXP DUP2 SLOAD DUP2 PUSH1 0xFF MUL NOT AND SWAP1 DUP4 ISZERO ISZERO MUL OR SWAP1 SSTORE POP PUSH1 0xA PUSH1 0x1 SSTORE PUSH32 0xFFFFFFFFFFFFFFFFFFFFFFFFFFFFFFFFFFFFFFFFFFFFFFFFFFFFFFFFFFFFFFF7 PUSH1 0x2 SSTORE PUSH1 0x40 MLOAD DUP1 PUSH1 0x40 ADD PUSH1 0x40 MSTORE DUP1 PUSH1 0x11 DUP2 MSTORE PUSH1 0x20 ADD PUSH32 0x4C6561726E696E6720736F6C6964697479000000000000000000000000000000 DUP2 MSTORE POP PUSH1 0x3 SWAP1 DUP2 PUSH2 0x8A SWAP2 SWAP1 PUSH2 0x351 JUMP JUMPDEST POP PUSH20 0xCFDF5A13325B0952B8B2BED2DA869C40DC2B8AC6 PUSH1 0x4 PUSH0 PUSH2 0x100 EXP DUP2 SLOAD DUP2 PUSH20 0xFFFFFFFFFFFFFFFFFFFFFFFFFFFFFFFFFFFFFFFF MUL NOT AND SWAP1 DUP4 PUSH20 0xFFFFFFFFFFFFFFFFFFFFFFFFFFFFFFFFFFFFFFFF AND MUL OR SWAP1 SSTORE POP PUSH32 0x6361740000000000000000000000000000000000000000000000000000000000 PUSH1 0x5 SSTORE CALLVALUE DUP1 ISZERO PUSH2 0x10E JUMPI PUSH0 PUSH0 REVERT JUMPDEST POP PUSH2 0x420 JUMP JUMPDEST PUSH0 DUP2 MLOAD SWAP1 POP SWAP2 SWAP1 POP JUMP JUMPDEST PUSH32 0x4E487B7100000000000000000000000000000000000000000000000000000000 PUSH0 MSTORE PUSH1 0x41 PUSH1 0x4 MSTORE PUSH1 0x24 PUSH0 REVERT JUMPDEST PUSH32 0x4E487B7100000000000000000000000000000000000000000000000000000000 PUSH0 MSTORE PUSH1 0x22 PUSH1 0x4 MSTORE PUSH1 0x24 PUSH0 REVERT JUMPDEST PUSH0 PUSH1 0x2 DUP3 DIV SWAP1 POP PUSH1 0x1 DUP3 AND DUP1 PUSH2 0x18F JUMPI PUSH1 0x7F DUP3 AND SWAP2 POP JUMPDEST PUSH1 0x20 DUP3 LT DUP2 SUB PUSH2 0x1A2 JUMPI PUSH2 0x1A1 PUSH2 0x14B JUMP JUMPDEST JUMPDEST POP SWAP2 SWAP1 POP JUMP JUMPDEST PUSH0 DUP2 SWAP1 POP DUP2 PUSH0 MSTORE PUSH1 0x20 PUSH0 KECCAK256 SWAP1 POP SWAP2 SWAP1 POP JUMP JUMPDEST PUSH0 PUSH1 0x20 PUSH1 0x1F DUP4 ADD DIV SWAP1 POP SWAP2 SWAP1 POP JUMP JUMPDEST PUSH0 DUP3 DUP3 SHL SWAP1 POP SWAP3 SWAP2 POP POP JUMP JUMPDEST PUSH0 PUSH1 0x8 DUP4 MUL PUSH2 0x204 PUSH32 0xFFFFFFFFFFFFFFFFFFFFFFFFFFFFFFFFFFFFFFFFFFFFFFFFFFFFFFFFFFFFFFFF DUP3 PUSH2 0x1C9 JUMP JUMPDEST PUSH2 0x20E DUP7 DUP4 PUSH2 0x1C9 JUMP JUMPDEST SWAP6 POP DUP1 NOT DUP5 AND SWAP4 POP DUP1 DUP7 AND DUP5 OR SWAP3 POP POP POP SWAP4 SWAP3 POP POP POP JUMP JUMPDEST PUSH0 DUP2 SWAP1 POP SWAP2 SWAP1 POP JUMP JUMPDEST PUSH0 DUP2 SWAP1 POP SWAP2 SWAP1 POP JUMP JUMPDEST PUSH0 PUSH2 0x252 PUSH2 0x24D PUSH2 0x248 DUP5 PUSH2 0x226 JUMP JUMPDEST PUSH2 0x22F JUMP JUMPDEST PUSH2 0x226 JUMP JUMPDEST SWAP1 POP SWAP2 SWAP1 POP JUMP JUMPDEST PUSH0 DUP2 SWAP1 POP SWAP2 SWAP1 POP JUMP JUMPDEST PUSH2 0x26B DUP4 PUSH2 0x238 JUMP JUMPDEST PUSH2 0x27F PUSH2 0x277 DUP3 PUSH2 0x259 JUMP JUMPDEST DUP5 DUP5 SLOAD PUSH2 0x1D5 JUMP JUMPDEST DUP3 SSTORE POP POP POP POP JUMP JUMPDEST PUSH0 PUSH0 SWAP1 POP SWAP1 JUMP JUMPDEST PUSH2 0x296 PUSH2 0x287 JUMP JUMPDEST PUSH2 0x2A1 DUP2 DUP5 DUP5 PUSH2 0x262 JUMP JUMPDEST POP POP POP JUMP JUMPDEST JUMPDEST DUP2 DUP2 LT ISZERO PUSH2 0x2C4 JUMPI PUSH2 0x2B9 PUSH0 DUP3 PUSH2 0x28E JUMP JUMPDEST PUSH1 0x1 DUP2 ADD SWAP1 POP PUSH2 0x2A7 JUMP JUMPDEST POP POP JUMP JUMPDEST PUSH1 0x1F DUP3 GT ISZERO PUSH2 0x309 JUMPI PUSH2 0x2DA DUP2 PUSH2 0x1A8 JUMP JUMPDEST PUSH2 0x2E3 DUP5 PUSH2 0x1BA JUMP JUMPDEST DUP2 ADD PUSH1 0x20 DUP6 LT ISZERO PUSH2 0x2F2 JUMPI DUP2 SWAP1 POP JUMPDEST PUSH2 0x306 PUSH2 0x2FE DUP6 PUSH2 0x1BA JUMP JUMPDEST DUP4 ADD DUP3 PUSH2 0x2A6 JUMP JUMPDEST POP POP JUMPDEST POP POP POP JUMP JUMPDEST PUSH0 DUP3 DUP3 SHR SWAP1 POP SWAP3 SWAP2 POP POP JUMP JUMPDEST PUSH0 PUSH2 0x329 PUSH0 NOT DUP5 PUSH1 0x8 MUL PUSH2 0x30E JUMP JUMPDEST NOT DUP1 DUP4 AND SWAP2 POP POP SWAP3 SWAP2 POP POP JUMP JUMPDEST PUSH0 PUSH2 0x341 DUP4 DUP4 PUSH2 0x31A JUMP JUMPDEST SWAP2 POP DUP3 PUSH1 0x2 MUL DUP3 OR SWAP1 POP SWAP3 SWAP2 POP POP JUMP JUMPDEST PUSH2 0x35A DUP3 PUSH2 0x114 JUMP JUMPDEST PUSH8 0xFFFFFFFFFFFFFFFF DUP2 GT ISZERO PUSH2 0x373 JUMPI PUSH2 0x372 PUSH2 0x11E JUMP JUMPDEST JUMPDEST PUSH2 0x37D DUP3 SLOAD PUSH2 0x178 JUMP JUMPDEST PUSH2 0x388 DUP3 DUP3 DUP6 PUSH2 0x2C8 JUMP JUMPDEST PUSH0 PUSH1 0x20 SWAP1 POP PUSH1 0x1F DUP4 GT PUSH1 0x1 DUP2 EQ PUSH2 0x3B9 JUMPI PUSH0 DUP5 ISZERO PUSH2 0x3A7 JUMPI DUP3 DUP8 ADD MLOAD SWAP1 POP JUMPDEST PUSH2 0x3B1 DUP6 DUP3 PUSH2 0x336 JUMP JUMPDEST DUP7 SSTORE POP PUSH2 0x418 JUMP JUMPDEST PUSH1 0x1F NOT DUP5 AND PUSH2 0x3C7 DUP7 PUSH2 0x1A8 JUMP JUMPDEST PUSH0 JUMPDEST DUP3 DUP2 LT ISZERO PUSH2 0x3EE JUMPI DUP5 DUP10 ADD MLOAD DUP3 SSTORE PUSH1 0x1 DUP3 ADD SWAP2 POP PUSH1 0x20 DUP6 ADD SWAP5 POP PUSH1 0x20 DUP2 ADD SWAP1 POP PUSH2 0x3C9 JUMP JUMPDEST DUP7 DUP4 LT ISZERO PUSH2 0x40B JUMPI DUP5 DUP10 ADD MLOAD PUSH2 0x407 PUSH1 0x1F DUP10 AND DUP3 PUSH2 0x31A JUMP JUMPDEST DUP4 SSTORE POP JUMPDEST PUSH1 0x1 PUSH1 0x2 DUP9 MUL ADD DUP9 SSTORE POP POP POP JUMPDEST POP POP POP POP POP POP JUMP JUMPDEST PUSH2 0xBA6 DUP1 PUSH2 0x42D PUSH0 CODECOPY PUSH0 RETURN INVALID PUSH1 0x80 PUSH1 0x40 MSTORE CALLVALUE DUP1 ISZERO PUSH2 0xF JUMPI PUSH0 PUSH0 REVERT JUMPDEST POP PUSH1 0x4 CALLDATASIZE LT PUSH2 0x7B JUMPI PUSH0 CALLDATALOAD PUSH1 0xE0 SHR DUP1 PUSH4 0x6057361D GT PUSH2 0x59 JUMPI DUP1 PUSH4 0x6057361D EQ PUSH2 0xEC JUMPI DUP1 PUSH4 0x62C45A21 EQ PUSH2 0x108 JUMPI DUP1 PUSH4 0x95607CED EQ PUSH2 0x138 JUMPI DUP1 PUSH4 0xBC832D4E EQ PUSH2 0x156 JUMPI PUSH2 0x7B JUMP JUMPDEST DUP1 PUSH4 0xBF285E5 EQ PUSH2 0x7F JUMPI DUP1 PUSH4 0x2E64CEC1 EQ PUSH2 0x9D JUMPI DUP1 PUSH4 0x2EBCE631 EQ PUSH2 0xBB JUMPI JUMPDEST PUSH0 PUSH0 REVERT JUMPDEST PUSH2 0x87 PUSH2 0x172 JUMP JUMPDEST PUSH1 0x40 MLOAD PUSH2 0x94 SWAP2 SWAP1 PUSH2 0x3FE JUMP JUMPDEST PUSH1 0x40 MLOAD DUP1 SWAP2 SUB SWAP1 RETURN JUMPDEST PUSH2 0xA5 PUSH2 0x178 JUMP JUMPDEST PUSH1 0x40 MLOAD PUSH2 0xB2 SWAP2 SWAP1 PUSH2 0x3FE JUMP JUMPDEST PUSH1 0x40 MLOAD DUP1 SWAP2 SUB SWAP1 RETURN JUMPDEST PUSH2 0xD5 PUSH1 0x4 DUP1 CALLDATASIZE SUB DUP2 ADD SWAP1 PUSH2 0xD0 SWAP2 SWAP1 PUSH2 0x452 JUMP JUMPDEST PUSH2 0x181 JUMP JUMPDEST PUSH1 0x40 MLOAD PUSH2 0xE3 SWAP3 SWAP2 SWAP1 PUSH2 0x4ED JUMP JUMPDEST PUSH1 0x40 MLOAD DUP1 SWAP2 SUB SWAP1 RETURN JUMPDEST PUSH2 0x106 PUSH1 0x4 DUP1 CALLDATASIZE SUB DUP2 ADD SWAP1 PUSH2 0x101 SWAP2 SWAP1 PUSH2 0x452 JUMP JUMPDEST PUSH2 0x236 JUMP JUMPDEST STOP JUMPDEST PUSH2 0x122 PUSH1 0x4 DUP1 CALLDATASIZE SUB DUP2 ADD SWAP1 PUSH2 0x11D SWAP2 SWAP1 PUSH2 0x647 JUMP JUMPDEST PUSH2 0x240 JUMP JUMPDEST PUSH1 0x40 MLOAD PUSH2 0x12F SWAP2 SWAP1 PUSH2 0x3FE JUMP JUMPDEST PUSH1 0x40 MLOAD DUP1 SWAP2 SUB SWAP1 RETURN JUMPDEST PUSH2 0x140 PUSH2 0x26D JUMP JUMPDEST PUSH1 0x40 MLOAD PUSH2 0x14D SWAP2 SWAP1 PUSH2 0x7DA JUMP JUMPDEST PUSH1 0x40 MLOAD DUP1 SWAP2 SUB SWAP1 RETURN JUMPDEST PUSH2 0x170 PUSH1 0x4 DUP1 CALLDATASIZE SUB DUP2 ADD SWAP1 PUSH2 0x16B SWAP2 SWAP1 PUSH2 0x7FA JUMP JUMPDEST PUSH2 0x362 JUMP JUMPDEST STOP JUMPDEST PUSH1 0x11 SLOAD DUP2 JUMP JUMPDEST PUSH0 PUSH1 0x11 SLOAD SWAP1 POP SWAP1 JUMP JUMPDEST PUSH1 0xF DUP2 DUP2 SLOAD DUP2 LT PUSH2 0x190 JUMPI PUSH0 DUP1 REVERT JUMPDEST SWAP1 PUSH0 MSTORE PUSH1 0x20 PUSH0 KECCAK256 SWAP1 PUSH1 0x2 MUL ADD PUSH0 SWAP2 POP SWAP1 POP DUP1 PUSH0 ADD SLOAD SWAP1 DUP1 PUSH1 0x1 ADD DUP1 SLOAD PUSH2 0x1B5 SWAP1 PUSH2 0x881 JUMP JUMPDEST DUP1 PUSH1 0x1F ADD PUSH1 0x20 DUP1 SWAP2 DIV MUL PUSH1 0x20 ADD PUSH1 0x40 MLOAD SWAP1 DUP2 ADD PUSH1 0x40 MSTORE DUP1 SWAP3 SWAP2 SWAP1 DUP2 DUP2 MSTORE PUSH1 0x20 ADD DUP3 DUP1 SLOAD PUSH2 0x1E1 SWAP1 PUSH2 0x881 JUMP JUMPDEST DUP1 ISZERO PUSH2 0x22C JUMPI DUP1 PUSH1 0x1F LT PUSH2 0x203 JUMPI PUSH2 0x100 DUP1 DUP4 SLOAD DIV MUL DUP4 MSTORE SWAP2 PUSH1 0x20 ADD SWAP2 PUSH2 0x22C JUMP JUMPDEST DUP3 ADD SWAP2 SWAP1 PUSH0 MSTORE PUSH1 0x20 PUSH0 KECCAK256 SWAP1 JUMPDEST DUP2 SLOAD DUP2 MSTORE SWAP1 PUSH1 0x1 ADD SWAP1 PUSH1 0x20 ADD DUP1 DUP4 GT PUSH2 0x20F JUMPI DUP3 SWAP1 SUB PUSH1 0x1F AND DUP3 ADD SWAP2 JUMPDEST POP POP POP POP POP SWAP1 POP DUP3 JUMP JUMPDEST DUP1 PUSH1 0x11 DUP2 SWAP1 SSTORE POP POP JUMP JUMPDEST PUSH1 0x10 DUP2 DUP1 MLOAD PUSH1 0x20 DUP2 ADD DUP3 ADD DUP1 MLOAD DUP5 DUP3 MSTORE PUSH1 0x20 DUP4 ADD PUSH1 0x20 DUP6 ADD KECCAK256 DUP2 DUP4 MSTORE DUP1 SWAP6 POP POP POP POP POP POP PUSH0 SWAP2 POP SWAP1 POP SLOAD DUP2 JUMP JUMPDEST PUSH1 0x60 PUSH1 0xF DUP1 SLOAD DUP1 PUSH1 0x20 MUL PUSH1 0x20 ADD PUSH1 0x40 MLOAD SWAP1 DUP2 ADD PUSH1 0x40 MSTORE DUP1 SWAP3 SWAP2 SWAP1 DUP2 DUP2 MSTORE PUSH1 0x20 ADD PUSH0 SWAP1 JUMPDEST DUP3 DUP3 LT ISZERO PUSH2 0x359 JUMPI DUP4 DUP3 SWAP1 PUSH0 MSTORE PUSH1 0x20 PUSH0 KECCAK256 SWAP1 PUSH1 0x2 MUL ADD PUSH1 0x40 MLOAD DUP1 PUSH1 0x40 ADD PUSH1 0x40 MSTORE SWAP1 DUP2 PUSH0 DUP3 ADD SLOAD DUP2 MSTORE PUSH1 0x20 ADD PUSH1 0x1 DUP3 ADD DUP1 SLOAD PUSH2 0x2CA SWAP1 PUSH2 0x881 JUMP JUMPDEST DUP1 PUSH1 0x1F ADD PUSH1 0x20 DUP1 SWAP2 DIV MUL PUSH1 0x20 ADD PUSH1 0x40 MLOAD SWAP1 DUP2 ADD PUSH1 0x40 MSTORE DUP1 SWAP3 SWAP2 SWAP1 DUP2 DUP2 MSTORE PUSH1 0x20 ADD DUP3 DUP1 SLOAD PUSH2 0x2F6 SWAP1 PUSH2 0x881 JUMP JUMPDEST DUP1 ISZERO PUSH2 0x341 JUMPI DUP1 PUSH1 0x1F LT PUSH2 0x318 JUMPI PUSH2 0x100 DUP1 DUP4 SLOAD DIV MUL DUP4 MSTORE SWAP2 PUSH1 0x20 ADD SWAP2 PUSH2 0x341 JUMP JUMPDEST DUP3 ADD SWAP2 SWAP1 PUSH0 MSTORE PUSH1 0x20 PUSH0 KECCAK256 SWAP1 JUMPDEST DUP2 SLOAD DUP2 MSTORE SWAP1 PUSH1 0x1 ADD SWAP1 PUSH1 0x20 ADD DUP1 DUP4 GT PUSH2 0x324 JUMPI DUP3 SWAP1 SUB PUSH1 0x1F AND DUP3 ADD SWAP2 JUMPDEST POP POP POP POP POP DUP2 MSTORE POP POP DUP2 MSTORE PUSH1 0x20 ADD SWAP1 PUSH1 0x1 ADD SWAP1 PUSH2 0x290 JUMP JUMPDEST POP POP POP POP SWAP1 POP SWAP1 JUMP JUMPDEST PUSH1 0xF PUSH1 0x40 MLOAD DUP1 PUSH1 0x40 ADD PUSH1 0x40 MSTORE DUP1 DUP5 DUP2 MSTORE PUSH1 0x20 ADD DUP4 DUP2 MSTORE POP SWAP1 DUP1 PUSH1 0x1 DUP2 SLOAD ADD DUP1 DUP3 SSTORE DUP1 SWAP2 POP POP PUSH1 0x1 SWAP1 SUB SWAP1 PUSH0 MSTORE PUSH1 0x20 PUSH0 KECCAK256 SWAP1 PUSH1 0x2 MUL ADD PUSH0 SWAP1 SWAP2 SWAP1 SWAP2 SWAP1 SWAP2 POP PUSH0 DUP3 ADD MLOAD DUP2 PUSH0 ADD SSTORE PUSH1 0x20 DUP3 ADD MLOAD DUP2 PUSH1 0x1 ADD SWAP1 DUP2 PUSH2 0x3BC SWAP2 SWAP1 PUSH2 0xA51 JUMP JUMPDEST POP POP POP DUP2 PUSH1 0x10 DUP3 PUSH1 0x40 MLOAD PUSH2 0x3D0 SWAP2 SWAP1 PUSH2 0xB5A JUMP JUMPDEST SWAP1 DUP2 MSTORE PUSH1 0x20 ADD PUSH1 0x40 MLOAD DUP1 SWAP2 SUB SWAP1 KECCAK256 DUP2 SWAP1 SSTORE POP POP POP JUMP JUMPDEST PUSH0 DUP2 SWAP1 POP SWAP2 SWAP1 POP JUMP JUMPDEST PUSH2 0x3F8 DUP2 PUSH2 0x3E6 JUMP JUMPDEST DUP3 MSTORE POP POP JUMP JUMPDEST PUSH0 PUSH1 0x20 DUP3 ADD SWAP1 POP PUSH2 0x411 PUSH0 DUP4 ADD DUP5 PUSH2 0x3EF JUMP JUMPDEST SWAP3 SWAP2 POP POP JUMP JUMPDEST PUSH0 PUSH1 0x40 MLOAD SWAP1 POP SWAP1 JUMP JUMPDEST PUSH0 PUSH0 REVERT JUMPDEST PUSH0 PUSH0 REVERT JUMPDEST PUSH2 0x431 DUP2 PUSH2 0x3E6 JUMP JUMPDEST DUP2 EQ PUSH2 0x43B JUMPI PUSH0 PUSH0 REVERT JUMPDEST POP JUMP JUMPDEST PUSH0 DUP2 CALLDATALOAD SWAP1 POP PUSH2 0x44C DUP2 PUSH2 0x428 JUMP JUMPDEST SWAP3 SWAP2 POP POP JUMP JUMPDEST PUSH0 PUSH1 0x20 DUP3 DUP5 SUB SLT ISZERO PUSH2 0x467 JUMPI PUSH2 0x466 PUSH2 0x420 JUMP JUMPDEST JUMPDEST PUSH0 PUSH2 0x474 DUP5 DUP3 DUP6 ADD PUSH2 0x43E JUMP JUMPDEST SWAP2 POP POP SWAP3 SWAP2 POP POP JUMP JUMPDEST PUSH0 DUP2 MLOAD SWAP1 POP SWAP2 SWAP1 POP JUMP JUMPDEST PUSH0 DUP3 DUP3 MSTORE PUSH1 0x20 DUP3 ADD SWAP1 POP SWAP3 SWAP2 POP POP JUMP JUMPDEST DUP3 DUP2 DUP4 MCOPY PUSH0 DUP4 DUP4 ADD MSTORE POP POP POP JUMP JUMPDEST PUSH0 PUSH1 0x1F NOT PUSH1 0x1F DUP4 ADD AND SWAP1 POP SWAP2 SWAP1 POP JUMP JUMPDEST PUSH0 PUSH2 0x4BF DUP3 PUSH2 0x47D JUMP JUMPDEST PUSH2 0x4C9 DUP2 DUP6 PUSH2 0x487 JUMP JUMPDEST SWAP4 POP PUSH2 0x4D9 DUP2 DUP6 PUSH1 0x20 DUP7 ADD PUSH2 0x497 JUMP JUMPDEST PUSH2 0x4E2 DUP2 PUSH2 0x4A5 JUMP JUMPDEST DUP5 ADD SWAP2 POP POP SWAP3 SWAP2 POP POP JUMP JUMPDEST PUSH0 PUSH1 0x40 DUP3 ADD SWAP1 POP PUSH2 0x500 PUSH0 DUP4 ADD DUP6 PUSH2 0x3EF JUMP JUMPDEST DUP2 DUP2 SUB PUSH1 0x20 DUP4 ADD MSTORE PUSH2 0x512 DUP2 DUP5 PUSH2 0x4B5 JUMP JUMPDEST SWAP1 POP SWAP4 SWAP3 POP POP POP JUMP JUMPDEST PUSH0 PUSH0 REVERT JUMPDEST PUSH0 PUSH0 REVERT JUMPDEST PUSH32 0x4E487B7100000000000000000000000000000000000000000000000000000000 PUSH0 MSTORE PUSH1 0x41 PUSH1 0x4 MSTORE PUSH1 0x24 PUSH0 REVERT JUMPDEST PUSH2 0x559 DUP3 PUSH2 0x4A5 JUMP JUMPDEST DUP2 ADD DUP2 DUP2 LT PUSH8 0xFFFFFFFFFFFFFFFF DUP3 GT OR ISZERO PUSH2 0x578 JUMPI PUSH2 0x577 PUSH2 0x523 JUMP JUMPDEST JUMPDEST DUP1 PUSH1 0x40 MSTORE POP POP POP JUMP JUMPDEST PUSH0 PUSH2 0x58A PUSH2 0x417 JUMP JUMPDEST SWAP1 POP PUSH2 0x596 DUP3 DUP3 PUSH2 0x550 JUMP JUMPDEST SWAP2 SWAP1 POP JUMP JUMPDEST PUSH0 PUSH8 0xFFFFFFFFFFFFFFFF DUP3 GT ISZERO PUSH2 0x5B5 JUMPI PUSH2 0x5B4 PUSH2 0x523 JUMP JUMPDEST JUMPDEST PUSH2 0x5BE DUP3 PUSH2 0x4A5 JUMP JUMPDEST SWAP1 POP PUSH1 0x20 DUP2 ADD SWAP1 POP SWAP2 SWAP1 POP JUMP JUMPDEST DUP3 DUP2 DUP4 CALLDATACOPY PUSH0 DUP4 DUP4 ADD MSTORE POP POP POP JUMP JUMPDEST PUSH0 PUSH2 0x5EB PUSH2 0x5E6 DUP5 PUSH2 0x59B JUMP JUMPDEST PUSH2 0x581 JUMP JUMPDEST SWAP1 POP DUP3 DUP2 MSTORE PUSH1 0x20 DUP2 ADD DUP5 DUP5 DUP5 ADD GT ISZERO PUSH2 0x607 JUMPI PUSH2 0x606 PUSH2 0x51F JUMP JUMPDEST JUMPDEST PUSH2 0x612 DUP5 DUP3 DUP6 PUSH2 0x5CB JUMP JUMPDEST POP SWAP4 SWAP3 POP POP POP JUMP JUMPDEST PUSH0 DUP3 PUSH1 0x1F DUP4 ADD SLT PUSH2 0x62E JUMPI PUSH2 0x62D PUSH2 0x51B JUMP JUMPDEST JUMPDEST DUP2 CALLDATALOAD PUSH2 0x63E DUP5 DUP3 PUSH1 0x20 DUP7 ADD PUSH2 0x5D9 JUMP JUMPDEST SWAP2 POP POP SWAP3 SWAP2 POP POP JUMP JUMPDEST PUSH0 PUSH1 0x20 DUP3 DUP5 SUB SLT ISZERO PUSH2 0x65C JUMPI PUSH2 0x65B PUSH2 0x420 JUMP JUMPDEST JUMPDEST PUSH0 DUP3 ADD CALLDATALOAD PUSH8 0xFFFFFFFFFFFFFFFF DUP2 GT ISZERO PUSH2 0x679 JUMPI PUSH2 0x678 PUSH2 0x424 JUMP JUMPDEST JUMPDEST PUSH2 0x685 DUP5 DUP3 DUP6 ADD PUSH2 0x61A JUMP JUMPDEST SWAP2 POP POP SWAP3 SWAP2 POP POP JUMP JUMPDEST PUSH0 DUP2 MLOAD SWAP1 POP SWAP2 SWAP1 POP JUMP JUMPDEST PUSH0 DUP3 DUP3 MSTORE PUSH1 0x20 DUP3 ADD SWAP1 POP SWAP3 SWAP2 POP POP JUMP JUMPDEST PUSH0 DUP2 SWAP1 POP PUSH1 0x20 DUP3 ADD SWAP1 POP SWAP2 SWAP1 POP JUMP JUMPDEST PUSH2 0x6C0 DUP2 PUSH2 0x3E6 JUMP JUMPDEST DUP3 MSTORE POP POP JUMP JUMPDEST PUSH0 DUP3 DUP3 MSTORE PUSH1 0x20 DUP3 ADD SWAP1 POP SWAP3 SWAP2 POP POP JUMP JUMPDEST PUSH0 PUSH2 0x6E0 DUP3 PUSH2 0x47D JUMP JUMPDEST PUSH2 0x6EA DUP2 DUP6 PUSH2 0x6C6 JUMP JUMPDEST SWAP4 POP PUSH2 0x6FA DUP2 DUP6 PUSH1 0x20 DUP7 ADD PUSH2 0x497 JUMP JUMPDEST PUSH2 0x703 DUP2 PUSH2 0x4A5 JUMP JUMPDEST DUP5 ADD SWAP2 POP POP SWAP3 SWAP2 POP POP JUMP JUMPDEST PUSH0 PUSH1 0x40 DUP4 ADD PUSH0 DUP4 ADD MLOAD PUSH2 0x723 PUSH0 DUP7 ADD DUP3 PUSH2 0x6B7 JUMP JUMPDEST POP PUSH1 0x20 DUP4 ADD MLOAD DUP5 DUP3 SUB PUSH1 0x20 DUP7 ADD MSTORE PUSH2 0x73B DUP3 DUP3 PUSH2 0x6D6 JUMP JUMPDEST SWAP2 POP POP DUP1 SWAP2 POP POP SWAP3 SWAP2 POP POP JUMP JUMPDEST PUSH0 PUSH2 0x753 DUP4 DUP4 PUSH2 0x70E JUMP JUMPDEST SWAP1 POP SWAP3 SWAP2 POP POP JUMP JUMPDEST PUSH0 PUSH1 0x20 DUP3 ADD SWAP1 POP SWAP2 SWAP1 POP JUMP JUMPDEST PUSH0 PUSH2 0x771 DUP3 PUSH2 0x68E JUMP JUMPDEST PUSH2 0x77B DUP2 DUP6 PUSH2 0x698 JUMP JUMPDEST SWAP4 POP DUP4 PUSH1 0x20 DUP3 MUL DUP6 ADD PUSH2 0x78D DUP6 PUSH2 0x6A8 JUMP JUMPDEST DUP1 PUSH0 JUMPDEST DUP6 DUP2 LT ISZERO PUSH2 0x7C8 JUMPI DUP5 DUP5 SUB DUP10 MSTORE DUP2 MLOAD PUSH2 0x7A9 DUP6 DUP3 PUSH2 0x748 JUMP JUMPDEST SWAP5 POP PUSH2 0x7B4 DUP4 PUSH2 0x75B JUMP JUMPDEST SWAP3 POP PUSH1 0x20 DUP11 ADD SWAP10 POP POP PUSH1 0x1 DUP2 ADD SWAP1 POP PUSH2 0x790 JUMP JUMPDEST POP DUP3 SWAP8 POP DUP8 SWAP6 POP POP POP POP POP POP SWAP3 SWAP2 POP POP JUMP JUMPDEST PUSH0 PUSH1 0x20 DUP3 ADD SWAP1 POP DUP2 DUP2 SUB PUSH0 DUP4 ADD MSTORE PUSH2 0x7F2 DUP2 DUP5 PUSH2 0x767 JUMP JUMPDEST SWAP1 POP SWAP3 SWAP2 POP POP JUMP JUMPDEST PUSH0 PUSH0 PUSH1 0x40 DUP4 DUP6 SUB SLT ISZERO PUSH2 0x810 JUMPI PUSH2 0x80F PUSH2 0x420 JUMP JUMPDEST JUMPDEST PUSH0 PUSH2 0x81D DUP6 DUP3 DUP7 ADD PUSH2 0x43E JUMP JUMPDEST SWAP3 POP POP PUSH1 0x20 DUP4 ADD CALLDATALOAD PUSH8 0xFFFFFFFFFFFFFFFF DUP2 GT ISZERO PUSH2 0x83E JUMPI PUSH2 0x83D PUSH2 0x424 JUMP JUMPDEST JUMPDEST PUSH2 0x84A DUP6 DUP3 DUP7 ADD PUSH2 0x61A JUMP JUMPDEST SWAP2 POP POP SWAP3 POP SWAP3 SWAP1 POP JUMP JUMPDEST PUSH32 0x4E487B7100000000000000000000000000000000000000000000000000000000 PUSH0 MSTORE PUSH1 0x22 PUSH1 0x4 MSTORE PUSH1 0x24 PUSH0 REVERT JUMPDEST PUSH0 PUSH1 0x2 DUP3 DIV SWAP1 POP PUSH1 0x1 DUP3 AND DUP1 PUSH2 0x898 JUMPI PUSH1 0x7F DUP3 AND SWAP2 POP JUMPDEST PUSH1 0x20 DUP3 LT DUP2 SUB PUSH2 0x8AB JUMPI PUSH2 0x8AA PUSH2 0x854 JUMP JUMPDEST JUMPDEST POP SWAP2 SWAP1 POP JUMP JUMPDEST PUSH0 DUP2 SWAP1 POP DUP2 PUSH0 MSTORE PUSH1 0x20 PUSH0 KECCAK256 SWAP1 POP SWAP2 SWAP1 POP JUMP JUMPDEST PUSH0 PUSH1 0x20 PUSH1 0x1F DUP4 ADD DIV SWAP1 POP SWAP2 SWAP1 POP JUMP JUMPDEST PUSH0 DUP3 DUP3 SHL SWAP1 POP SWAP3 SWAP2 POP POP JUMP JUMPDEST PUSH0 PUSH1 0x8 DUP4 MUL PUSH2 0x90D PUSH32 0xFFFFFFFFFFFFFFFFFFFFFFFFFFFFFFFFFFFFFFFFFFFFFFFFFFFFFFFFFFFFFFFF DUP3 PUSH2 0x8D2 JUMP JUMPDEST PUSH2 0x917 DUP7 DUP4 PUSH2 0x8D2 JUMP JUMPDEST SWAP6 POP DUP1 NOT DUP5 AND SWAP4 POP DUP1 DUP7 AND DUP5 OR SWAP3 POP POP POP SWAP4 SWAP3 POP POP POP JUMP JUMPDEST PUSH0 DUP2 SWAP1 POP SWAP2 SWAP1 POP JUMP JUMPDEST PUSH0 PUSH2 0x952 PUSH2 0x94D PUSH2 0x948 DUP5 PUSH2 0x3E6 JUMP JUMPDEST PUSH2 0x92F JUMP JUMPDEST PUSH2 0x3E6 JUMP JUMPDEST SWAP1 POP SWAP2 SWAP1 POP JUMP JUMPDEST PUSH0 DUP2 SWAP1 POP SWAP2 SWAP1 POP JUMP JUMPDEST PUSH2 0x96B DUP4 PUSH2 0x938 JUMP JUMPDEST PUSH2 0x97F PUSH2 0x977 DUP3 PUSH2 0x959 JUMP JUMPDEST DUP5 DUP5 SLOAD PUSH2 0x8DE JUMP JUMPDEST DUP3 SSTORE POP POP POP POP JUMP JUMPDEST PUSH0 PUSH0 SWAP1 POP SWAP1 JUMP JUMPDEST PUSH2 0x996 PUSH2 0x987 JUMP JUMPDEST PUSH2 0x9A1 DUP2 DUP5 DUP5 PUSH2 0x962 JUMP JUMPDEST POP POP POP JUMP JUMPDEST JUMPDEST DUP2 DUP2 LT ISZERO PUSH2 0x9C4 JUMPI PUSH2 0x9B9 PUSH0 DUP3 PUSH2 0x98E JUMP JUMPDEST PUSH1 0x1 DUP2 ADD SWAP1 POP PUSH2 0x9A7 JUMP JUMPDEST POP POP JUMP JUMPDEST PUSH1 0x1F DUP3 GT ISZERO PUSH2 0xA09 JUMPI PUSH2 0x9DA DUP2 PUSH2 0x8B1 JUMP JUMPDEST PUSH2 0x9E3 DUP5 PUSH2 0x8C3 JUMP JUMPDEST DUP2 ADD PUSH1 0x20 DUP6 LT ISZERO PUSH2 0x9F2 JUMPI DUP2 SWAP1 POP JUMPDEST PUSH2 0xA06 PUSH2 0x9FE DUP6 PUSH2 0x8C3 JUMP JUMPDEST DUP4 ADD DUP3 PUSH2 0x9A6 JUMP JUMPDEST POP POP JUMPDEST POP POP POP JUMP JUMPDEST PUSH0 DUP3 DUP3 SHR SWAP1 POP SWAP3 SWAP2 POP POP JUMP JUMPDEST PUSH0 PUSH2 0xA29 PUSH0 NOT DUP5 PUSH1 0x8 MUL PUSH2 0xA0E JUMP JUMPDEST NOT DUP1 DUP4 AND SWAP2 POP POP SWAP3 SWAP2 POP POP JUMP JUMPDEST PUSH0 PUSH2 0xA41 DUP4 DUP4 PUSH2 0xA1A JUMP JUMPDEST SWAP2 POP DUP3 PUSH1 0x2 MUL DUP3 OR SWAP1 POP SWAP3 SWAP2 POP POP JUMP JUMPDEST PUSH2 0xA5A DUP3 PUSH2 0x47D JUMP JUMPDEST PUSH8 0xFFFFFFFFFFFFFFFF DUP2 GT ISZERO PUSH2 0xA73 JUMPI PUSH2 0xA72 PUSH2 0x523 JUMP JUMPDEST JUMPDEST PUSH2 0xA7D DUP3 SLOAD PUSH2 0x881 JUMP JUMPDEST PUSH2 0xA88 DUP3 DUP3 DUP6 PUSH2 0x9C8 JUMP JUMPDEST PUSH0 PUSH1 0x20 SWAP1 POP PUSH1 0x1F DUP4 GT PUSH1 0x1 DUP2 EQ PUSH2 0xAB9 JUMPI PUSH0 DUP5 ISZERO PUSH2 0xAA7 JUMPI DUP3 DUP8 ADD MLOAD SWAP1 POP JUMPDEST PUSH2 0xAB1 DUP6 DUP3 PUSH2 0xA36 JUMP JUMPDEST DUP7 SSTORE POP PUSH2 0xB18 JUMP JUMPDEST PUSH1 0x1F NOT DUP5 AND PUSH2 0xAC7 DUP7 PUSH2 0x8B1 JUMP JUMPDEST PUSH0 JUMPDEST DUP3 DUP2 LT ISZERO PUSH2 0xAEE JUMPI DUP5 DUP10 ADD MLOAD DUP3 SSTORE PUSH1 0x1 DUP3 ADD SWAP2 POP PUSH1 0x20 DUP6 ADD SWAP5 POP PUSH1 0x20 DUP2 ADD SWAP1 POP PUSH2 0xAC9 JUMP JUMPDEST DUP7 DUP4 LT ISZERO PUSH2 0xB0B JUMPI DUP5 DUP10 ADD MLOAD PUSH2 0xB07 PUSH1 0x1F DUP10 AND DUP3 PUSH2 0xA1A JUMP JUMPDEST DUP4 SSTORE POP JUMPDEST PUSH1 0x1 PUSH1 0x2 DUP9 MUL ADD DUP9 SSTORE POP POP POP JUMPDEST POP POP POP POP POP POP JUMP JUMPDEST PUSH0 DUP2 SWAP1 POP SWAP3 SWAP2 POP POP JUMP JUMPDEST PUSH0 PUSH2 0xB34 DUP3 PUSH2 0x47D JUMP JUMPDEST PUSH2 0xB3E DUP2 DUP6 PUSH2 0xB20 JUMP JUMPDEST SWAP4 POP PUSH2 0xB4E DUP2 DUP6 PUSH1 0x20 DUP7 ADD PUSH2 0x497 JUMP JUMPDEST DUP1 DUP5 ADD SWAP2 POP POP SWAP3 SWAP2 POP POP JUMP JUMPDEST PUSH0 PUSH2 0xB65 DUP3 DUP5 PUSH2 0xB2A JUMP JUMPDEST SWAP2 POP DUP2 SWAP1 POP SWAP3 SWAP2 POP POP JUMP INVALID LOG2 PUSH5 0x6970667358 0x22 SLT KECCAK256 PUSH20 0x396E9D0FC5FFFC68D9B479BB50680C24938C6281 DUP1 COINBASE AND 0xD2 OR ORIGIN EXTCODECOPY 0xF 0xA8 0x1E PUSH1 0x64 PUSH20 0x6F6C634300081B00330000000000000000000000 "
		},
		"gasEstimates": {
			"creation": {
				"codeDepositCost": "596400",
				"executionCost": "infinite",
				"totalCost": "infinite"
			},
			"external": {
				"addPerson(uint256,string)": "infinite",
				"listOfPeople(uint256)": "infinite",
				"nameId(string)": "infinite",
				"numToUpdate()": "2426",
				"retrieve()": "2455",
				"retrieveAll()": "infinite",
				"store(uint256)": "22515"
			}
		},
		"methodIdentifiers": {
			"addPerson(uint256,string)": "bc832d4e",
			"listOfPeople(uint256)": "2ebce631",
			"nameId(string)": "62c45a21",
			"numToUpdate()": "0bf285e5",
			"retrieve()": "2e64cec1",
			"retrieveAll()": "95607ced",
			"store(uint256)": "6057361d"
		}
	},
	"abi": [
		{
			"inputs": [
				{
					"internalType": "uint256",
					"name": "_id",
					"type": "uint256"
				},
				{
					"internalType": "string",
					"name": "_name",
					"type": "string"
				}
			],
			"name": "addPerson",
			"outputs": [],
			"stateMutability": "nonpayable",
			"type": "function"
		},
		{
			"inputs": [
				{
					"internalType": "uint256",
					"name": "",
					"type": "uint256"
				}
			],
			"name": "listOfPeople",
			"outputs": [
				{
					"internalType": "uint256",
					"name": "id",
					"type": "uint256"
				},
				{
					"internalType": "string",
					"name": "name",
					"type": "string"
				}
			],
			"stateMutability": "view",
			"type": "function"
		},
		{
			"inputs": [
				{
					"internalType": "string",
					"name": "",
					"type": "string"
				}
			],
			"name": "nameId",
			"outputs": [
				{
					"internalType": "uint256",
					"name": "",
					"type": "uint256"
				}
			],
			"stateMutability": "view",
			"type": "function"
		},
		{
			"inputs": [],
			"name": "numToUpdate",
			"outputs": [
				{
					"internalType": "uint256",
					"name": "",
					"type": "uint256"
				}
			],
			"stateMutability": "view",
			"type": "function"
		},
		{
			"inputs": [],
			"name": "retrieve",
			"outputs": [
				{
					"internalType": "uint256",
					"name": "",
					"type": "uint256"
				}
			],
			"stateMutability": "view",
			"type": "function"
		},
		{
			"inputs": [],
			"name": "retrieveAll",
			"outputs": [
				{
					"components": [
						{
							"internalType": "uint256",
							"name": "id",
							"type": "uint256"
						},
						{
							"internalType": "string",
							"name": "name",
							"type": "string"
						}
					],
					"internalType": "struct SimpleStorage.Person[]",
					"name": "",
					"type": "tuple[]"
				}
			],
			"stateMutability": "view",
			"type": "function"
		},
		{
			"inputs": [
				{
					"internalType": "uint256",
					"name": "_numToUpdate",
					"type": "uint256"
				}
			],
			"name": "store",
			"outputs": [],
			"stateMutability": "nonpayable",
			"type": "function"
		}
	]
}